{
  "contractName": "CloudNoteService",
  "abi": [
    {
      "constant": false,
      "inputs": [
        {
          "name": "id",
          "type": "string"
        },
        {
          "name": "name",
          "type": "string"
        },
        {
          "name": "content",
          "type": "string"
        }
      ],
      "name": "addNote",
      "outputs": [],
      "payable": false,
      "stateMutability": "nonpayable",
      "type": "function"
    },
    {
      "constant": false,
      "inputs": [
        {
          "name": "id",
          "type": "string"
        },
        {
          "name": "name",
          "type": "string"
        },
        {
          "name": "content",
          "type": "string"
        }
      ],
      "name": "updateNote",
      "outputs": [],
      "payable": false,
      "stateMutability": "nonpayable",
      "type": "function"
    },
    {
      "constant": true,
      "inputs": [
        {
          "name": "id",
          "type": "string"
        },
        {
          "name": "name",
          "type": "string"
        }
      ],
      "name": "getNote",
      "outputs": [
        {
          "name": "",
          "type": "string"
        }
      ],
      "payable": false,
      "stateMutability": "view",
      "type": "function"
    }
  ],
  "bytecode": "0x608060405234801561001057600080fd5b50610e16806100206000396000f300608060405260043610610057576000357c0100000000000000000000000000000000000000000000000000000000900463ffffffff16806302e1f7b71461005c578063041c80d514610151578063f947387c14610246575b600080fd5b34801561006857600080fd5b5061014f600480360381019080803590602001908201803590602001908080601f0160208091040260200160405190810160405280939291908181526020018383808284378201915050505050509192919290803590602001908201803590602001908080601f0160208091040260200160405190810160405280939291908181526020018383808284378201915050505050509192919290803590602001908201803590602001908080601f016020809104026020016040519081016040528093929190818152602001838380828437820191505050505050919291929050505061036e565b005b34801561015d57600080fd5b50610244600480360381019080803590602001908201803590602001908080601f0160208091040260200160405190810160405280939291908181526020018383808284378201915050505050509192919290803590602001908201803590602001908080601f0160208091040260200160405190810160405280939291908181526020018383808284378201915050505050509192919290803590602001908201803590602001908080601f0160208091040260200160405190810160405280939291908181526020018383808284378201915050505050509192919290505050610732565b005b34801561025257600080fd5b506102f3600480360381019080803590602001908201803590602001908080601f0160208091040260200160405190810160405280939291908181526020018383808284378201915050505050509192919290803590602001908201803590602001908080601f0160208091040260200160405190810160405280939291908181526020018383808284378201915050505050509192919290505050610bce565b6040518080602001828103825283818151815260200191508051906020019080838360005b83811015610333578082015181840152602081019050610318565b50505050905090810190601f1680156103605780820380516001836020036101000a031916815260200191505b509250505060405180910390f35b604051806000019050604051809103902060001916836040518082805190602001908083835b6020831015156103b95780518252602082019150602081019050602083039250610394565b6001836020036101000a03801982511681845116808217855250505050505090500191505060405180910390206000191614151515610460576040517f08c379a000000000000000000000000000000000000000000000000000000000815260040180806020018281038252600e8152602001807f6964e4b88de883bde4b8bae7a9ba00000000000000000000000000000000000081525060200191505060405180910390fd5b604051806000019050604051809103902060001916826040518082805190602001908083835b6020831015156104ab5780518252602082019150602081019050602083039250610486565b6001836020036101000a03801982511681845116808217855250505050505090500191505060405180910390206000191614151515610552576040517f08c379a00000000000000000000000000000000000000000000000000000000081526004018080602001828103825260108152602001807f6e616d65e4b88de883bde4b8bae7a9ba0000000000000000000000000000000081525060200191505060405180910390fd5b604051806000019050604051809103902060001916816040518082805190602001908083835b60208310151561059d5780518252602082019150602081019050602083039250610578565b6001836020036101000a03801982511681845116808217855250505050505090500191505060405180910390206000191614151515610644576040517f08c379a00000000000000000000000000000000000000000000000000000000081526004018080602001828103825260138152602001807f6e6f7465e5b7b2e7bb8fe5ad98e59ca8efbc810000000000000000000000000081525060200191505060405180910390fd5b806001846040518082805190602001908083835b60208310151561067d5780518252602082019150602081019050602083039250610658565b6001836020036101000a0380198251168184511680821785525050505050509050019150509081526020016040518091039020836040518082805190602001908083835b6020831015156106e657805182526020820191506020810190506020830392506106c1565b6001836020036101000a0380198251168184511680821785525050505050509050019150509081526020016040518091039020908051906020019061072c929190610d45565b50505050565b604051806000019050604051809103902060001916836040518082805190602001908083835b60208310151561077d5780518252602082019150602081019050602083039250610758565b6001836020036101000a03801982511681845116808217855250505050505090500191505060405180910390206000191614151515610824576040517f08c379a000000000000000000000000000000000000000000000000000000000815260040180806020018281038252600e8152602001807f6964e4b88de883bde4b8bae7a9ba00000000000000000000000000000000000081525060200191505060405180910390fd5b604051806000019050604051809103902060001916826040518082805190602001908083835b60208310151561086f578051825260208201915060208101905060208303925061084a565b6001836020036101000a03801982511681845116808217855250505050505090500191505060405180910390206000191614151515610916576040517f08c379a00000000000000000000000000000000000000000000000000000000081526004018080602001828103825260108152602001807f6e616d65e4b88de883bde4b8bae7a9ba0000000000000000000000000000000081525060200191505060405180910390fd5b6040518060000190506040518091039020600019166001846040518082805190602001908083835b602083101515610963578051825260208201915060208101905060208303925061093e565b6001836020036101000a0380198251168184511680821785525050505050509050019150509081526020016040518091039020836040518082805190602001908083835b6020831015156109cc57805182526020820191506020810190506020830392506109a7565b6001836020036101000a03801982511681845116808217855250505050505090500191505090815260200160405180910390206040518082805460018160011615610100020316600290048015610a5a5780601f10610a38576101008083540402835291820191610a5a565b820191906000526020600020905b815481529060010190602001808311610a46575b5050915050604051809103902060001916141515610ae0576040517f08c379a00000000000000000000000000000000000000000000000000000000081526004018080602001828103825260138152602001807f6e6f7465e5b7b2e7bb8fe5ad98e59ca8efbc810000000000000000000000000081525060200191505060405180910390fd5b806001846040518082805190602001908083835b602083101515610b195780518252602082019150602081019050602083039250610af4565b6001836020036101000a0380198251168184511680821785525050505050509050019150509081526020016040518091039020836040518082805190602001908083835b602083101515610b825780518252602082019150602081019050602083039250610b5d565b6001836020036101000a03801982511681845116808217855250505050505090500191505090815260200160405180910390209080519060200190610bc8929190610d45565b50505050565b60606001836040518082805190602001908083835b602083101515610c085780518252602082019150602081019050602083039250610be3565b6001836020036101000a0380198251168184511680821785525050505050509050019150509081526020016040518091039020826040518082805190602001908083835b602083101515610c715780518252602082019150602081019050602083039250610c4c565b6001836020036101000a03801982511681845116808217855250505050505090500191505090815260200160405180910390208054600181600116156101000203166002900480601f016020809104026020016040519081016040528092919081815260200182805460018160011615610100020316600290048015610d385780601f10610d0d57610100808354040283529160200191610d38565b820191906000526020600020905b815481529060010190602001808311610d1b57829003601f168201915b5050505050905092915050565b828054600181600116156101000203166002900490600052602060002090601f016020900481019282601f10610d8657805160ff1916838001178555610db4565b82800160010185558215610db4579182015b82811115610db3578251825591602001919060010190610d98565b5b509050610dc19190610dc5565b5090565b610de791905b80821115610de3576000816000905550600101610dcb565b5090565b905600a165627a7a723058205b94ebb29e1e8c4122de4b55150a70efabfd1ebb636679774fbab5c270f307670029",
  "source": "pragma solidity ^0.4.20;\n\n\n/**\n * The contractName contract does this and that...\n          用于服务云笔记的合约\n */\ncontract CloudNoteService {\n\t//用于保存每篇云笔记，key：笔记的标题  value：笔记的内容\n\tmapping (string => string) private note;\n\t//用于保存所有账户的云笔记，key：用户id value:key制定用户的所有云笔记\n\tmapping (string => mapping (string => string)) private data;\n\t//添加云笔记，id:用户ID, name:笔记标题（名称），content：笔记内容\n\n\n\tfunction addNote (string id, string name, string content) public {\n\t\t//用户ID不能为空，由于solidity语言中string类型的值不能直接比较\n\t\t//使用keccak256函数将string类型的值转换为bytes32类型进行比较\n\n\t\trequire (keccak256(id) != keccak256(\"\"), \"id不能为空\");\n\t\t//笔记标题不能为空\n\n\t\trequire (keccak256(name) != keccak256(\"\"), \"name不能为空\");\n\t\t//同一账号下，云笔记名称不能相同\n\n\t\trequire (keccak256(data[id][name]) == keccak256(\"\"), \"note已经存在！\");\n\t\t//将笔记内容添加到data变量\n\t\tdata[id][name] = content;\t\n\t}\n\t\n\t\n\t//更新云笔记的内容，参数与addNote函数的参数相同\t\n\tfunction updateNote (string id, string name, string content) public {\n\n\t\trequire (keccak256(id) != keccak256(\"\"),\"id不能为空\");\n\n\t\trequire (keccak256(name) != keccak256(\"\"), \"name不能为空\");\n\n\t\trequire (keccak256(content) != keccak256(\"\"), \"note已经存在！\");\n\n\t\t//修改云笔记的内容\n\t\tdata[id][name] = content;\t\n\t\t\n\t}\t\n\n\t// 根据用户ID和云笔记名称获取云笔记的内容。如果没有该云笔记，返回空\n\tfunction getNote (string id, string name) view public returns(string) {\n\n\t\treturn data[id][name];\n\t\t\t\t\n\t}\n\t\n}\n\n",
  "sourcePath": "/Users/a212/Desktop/dapp_miniprogram/contracts/CloudNoteService.sol",
  "compiler": {
    "name": "solc",
    "version": "0.4.24+commit.e67f0147.Emscripten.clang"
  },
  "schemaVersion": "2.0.0",
  "updatedAt": "2018-11-01T08:21:35.077Z"
}